:100000000C9462000C948A000C948A000C948A0070
:100010000C948A000C948A000C948A000C948A0038
:100020000C948A000C948A000C948A000C948A0028
:100030000C948A000C948A000C948A000C948A0018
:100040000C94CB080C948A000C943B090C94150971
:100050000C948A000C948A000C948A000C948A00F8
:100060000C948A000C948A000000000023002600F3
:10007000290000000008000201000003040700003E
:1000800000000000000000000000250028002B00F8
:1000900000000000240027002A00040404040404D3
:1000A0000404020202020202030303030303010227
:1000B00004081020408001020408102001020408F6
:1000C00010206D0911241FBECFEFD8E0DEBFCDBFD9
:1000D00011E0A0E0B1E0E0EEF0E202C005900D9288
:1000E000A03FB107D9F723E0A0EFB1E001C01D9216
:1000F000AE37B207E1F710E0C2E6D0E004C02197C6
:10010000FE010E946810C136D107C9F70E94B809E4
:100110000C946E100C94000090E0FC01E255FF4F2F
:10012000249186569F4FFC018491882399F090E09A
:10013000880F991FFC01E057FF4FA591B491FC0176
:10014000EA57FF4F859194918FB7F894EC91E22B89
:10015000EC938FBF0895833081F028F4813099F0BB
:100160008230A9F008958730A9F08830C9F0843032
:10017000B1F4809180008F7D03C0809180008F77E3
:1001800080938000089584B58F7784BD089584B5E9
:100190008F7DFBCF8091B0008F778093B000089562
:1001A0008091B0008F7DF9CFCF93DF93282F30E07F
:1001B000F901EE58FF4F8491F901E255FF4FD491B8
:1001C000F901E656FF4FC491CC23A1F081110E94A2
:1001D000AB00EC2FF0E0EE0FFF1FE859FF4FA591A9
:1001E000B491EC91ED2381E090E009F480E0DF919F
:1001F000CF91089580E090E0FACF1F93CF93DF93E3
:10020000282F30E0F901EE58FF4F8491F901E255B3
:10021000FF4FD491F901E656FF4FC491CC23A9F0CA
:10022000162F81110E94AB00EC2FF0E0EE0FFF1FA4
:10023000EA57FF4FA591B4918FB7F894EC91111143
:1002400008C0D095DE23DC938FBFDF91CF911F9143
:100250000895DE2BF8CF8E3008F08E5087708064C2
:1002600080937C0080917A00806480937A008091F2
:100270007A0086FDFCCF80917800909179000895F6
:100280003FB7F8948091C5029091C602A091C70231
:10029000B091C80226B5A89B05C02F3F19F0019662
:1002A000A11DB11D3FBFBA2FA92F982F8827BC01D0
:1002B000CD01620F711D811D911D42E0660F771FF8
:1002C000881F991F4A95D1F708952FB7F894609128
:1002D000C1027091C2028091C3029091C4022FBFEB
:1002E0000895AF92BF92CF92DF92EF92FF920F9359
:1002F0001F93CF93DF936C017B018B01040F151FBC
:10030000EB015E01AE18BF08C017D10759F0699123
:10031000D601ED91FC910190F081E02DC601099587
:10032000892B79F7C501DF91CF911F910F91FF9034
:10033000EF90DF90CF90BF90AF900895FC01538D68
:10034000448D252F30E0842F90E0821B930B5417AF
:1003500010F0CF96089501970895FC01918D828D3C
:10036000981761F0A28DAE0FBF2FB11D5D968C91D5
:10037000928D9F5F9F73928F90E008958FEF9FEF14
:100380000895FC01918D828D981731F0828DE80FD0
:10039000F11D858D90E008958FEF9FEF0895FC018A
:1003A000918D228D892F90E0805C9F4F821B910957
:1003B0008F739927089589EC92E00E94CF0121E084
:1003C000892B09F420E0822F089580E090E0892BAA
:1003D00029F00E94DB0181110C9400000895FC01BA
:1003E000A48DA80FB92FB11DA35ABF4F2C91848D96
:1003F00090E001968F739927848FA689B7892C93F3
:10040000A089B1898C91837080648C93938D848D45
:10041000981306C00288F389E02D80818F7D808348
:100420000895EF92FF920F931F93CF93DF93EC0108
:1004300081E0888F9B8D8C8D98131AC0E889F9898B
:10044000808185FF15C09FB7F894EE89FF8960838E
:10045000E889F98980818370806480839FBF81E00F
:1004600090E0DF91CF911F910F91FF90EF90089551
:10047000F62E0B8D10E00F5F1F4F0F731127E02E2C
:100480008C8D8E110CC00FB607FCFACFE889F98964
:10049000808185FFF5CFCE010E94EF01F1CFEB8D7A
:1004A000EC0FFD2FF11DE35AFF4FF0829FB7F89438
:1004B0000B8FEA89FB8980818062CFCFCF93DF9356
:1004C000EC01888D8823B9F0AA89BB89E889F9896C
:1004D0008C9185FD03C0808186FD0DC00FB607FCA1
:1004E000F7CF8C9185FFF2CF808185FFEDCFCE01D4
:1004F0000E94EF01E9CFDF91CF910895089590E038
:1005000080E008955F926F927F928F929F92AF9258
:10051000BF92CF92DF92EF92FF920F931F93CF93F0
:10052000DF93582E8B01EA0184EFA82EBB24B394ED
:10053000C12CD12CE12CF12C852D0E942B01BC016A
:1005400090E080E00E94A30E3B014C019601A701C0
:100550000E94550F181614F46301740181E0A81A63
:10056000B10851F720E030E040E85AE3B601C70196
:100570000E945A0F20E030E44CE955E40E945A0FE3
:100580006B017C01B801110F880B990B0E94A50E1D
:100590009B01AC01C701B6010E94900D6B017C016B
:1005A000BE01DD0F880B990B0E94A50E9B01AC01CB
:1005B000C701B6010E94020E23EF34E045EB5FE372
:1005C0000E94020EDF91CF911F910F91FF90EF904B
:1005D000DF90CF90BF90AF909F908F907F906F9063
:1005E0005F900895CF93DF93EC0160E08E810E94CD
:1005F000FD0061E08E810E94FD0060E08E810E941E
:10060000FD008BE891E00197F1F7DF91CF9108951C
:10061000CF92DF92EF92FF920F931F93CF93DF93CE
:100620006C017C0187E0E80EF11CD0E0C0E0062FF1
:1006300010E0B8010C2E02C0759567950A94E2F798
:100640006170F70181917F010E94FD002196C43005
:10065000D10579F7C601DF91CF911F910F91FF90DE
:10066000EF90DF90CF900C94F202CF92DF92EF9256
:10067000FF920F931F93CF93DF93EC01F62E642F1D
:100680008C810E94FD008D818F3F19F060E00E94F7
:10069000FD000F2D10E08F8584FF25C06E0187E0DF
:1006A000C80ED11CF12CE12CB8010E2C02C075959E
:1006B00067950A94E2F76170F60181916F010E94DB
:1006C000FD00FFEFEF1AFF0A88E0E816F10461F77A
:1006D000CE01DF91CF911F910F91FF90EF90DF90AE
:1006E000CF900C94F202B80184E0759567958A95D5
:1006F000E1F7CE010E9408036F2DCE01DF91CF916B
:100700001F910F91FF90EF90DF90CF900C94080312
:1007100040E0682F86E693E00C943503CF93DF9397
:10072000613029F090917503986090937503609300
:10073000790310927A0390E490937B0380937C0377
:10074000805C80937D0380916A030E948C0080917D
:100750006B038F3F11F00E948C0080916C030E940C
:100760008C00C6E6D3E09E01265633408091750387
:1007700084FD0AC084E090E02196281739073CF4F4
:100780008E810E948C00EFCF88E090E0F5CF8BE364
:100790009DE00197F1F760E080916A030E94FD00FF
:1007A00060E080916C030E94FD0080916B038F3F9D
:1007B00019F060E00E94FD008091750384FD39C04E
:1007C00063E086E693E00E940803CBE4D6E4CE0122
:1007D0000197F1F763E086E693E00E940803219712
:1007E000F1F763E086E693E00E94080383E592E078
:1007F0000197F1F762E086E693E00E94080380919A
:10080000750380620E94880384E0809376038CE005
:100810000E94880381E00E9488038BE39FE1019797
:10082000F1F782E08093770386E0DF91CF910C941B
:10083000880380620E9488038BE496E40197F1F7B5
:100840008091750380620E94880383E592E001979E
:10085000F1F78091750380620E948803D0CF909158
:100860007903891710F08FEF890FE82FF0E0EA592C
:10087000FC4F848980680C94880341E00E94350312
:1008800081E090E008952F923F924F925F926F9295
:100890007F928F929F92AF92BF92CF92DF92EF9210
:1008A000FF920F931F93CF93DF93CDB7DEB7A2973D
:1008B0000FB6F894DEBF0FBECDBF9AA389A38EE416
:1008C00080937C000E9440016B017C0132E0832E0A
:1008D000912CA12CB12C0E9440016C197D098E092C
:1008E0009F09683E734081059105A8F328EEC20E6A
:1008F00023E0D21EE11CF11C8A9489288A288B28C7
:1009000029F0812C912C54018394E5CF80917A00B9
:10091000806480937A0080917A0086FDFCCF80917C
:1009200078002091790030E0322F2227032E000C2E
:10093000440B550B282B60E070E381E190E00E94AE
:1009400049102D8B3E8B4F8B588F0E9465014B01B8
:100950005C0109A11AA1085A1F4FA9A1BAA1549676
:100960008C910E942B01F80191838083BC01990F27
:10097000880B990B0E94A50E6B017C012DEC3CECC1
:100980004CE054E40E94FD0D87FF0AC026E636E6DF
:1009900046EE53E4C701B6010E94550F18165CF0ED
:1009A0000E946501681979098A099B09613D7740B0
:1009B0008105910590F20E946501698B7A8B8B8B82
:1009C0009C8B10E000E01C821B8229A13AA1205CD4
:1009D0003F4F3A8F298F49A15AA14C5B5F4F5C87EB
:1009E0004B8789A19AA1885B9F4F9C8F8B8FA9A170
:1009F000BAA1A45BBF4FBE87AD87E9A1FAA1E05BB6
:100A0000FF4FFE8FED8F29A13AA12C5A3F4F388B13
:100A10002F8749A15AA1465A5F4F58874F8389A112
:100A20009AA1855A9F4F9A838983A9A1BAA1A85AEE
:100A3000BF4FB8A3AF8F0E94650129893A894B89BE
:100A40005C89621B730B840B950B603D77408105BD
:100A5000910508F027C10F5F1F4FE9A1FAA184A5F6
:100A600095A5A6A5B7A580A791A7A2A7B3A7848996
:100A70000E942B01A9A1BAA195969C938E9394975D
:100A800056968C910E942B013C01E9A1FAA197A3F3
:100A900086A384A895A8A6A8B7A824A035A0B101CC
:100AA000032C000C880B990B0E94A50E6B017C0196
:100AB000A50194010E94900D20E030E040E85AE347
:100AC0000E945A0FA50194010E94910D9B01AC0157
:100AD000A9A1BAA1D4962D933D934D935C93D7973A
:100AE000C701B6010E94900D4B015C01E9A1FAA17A
:100AF00084A695A6A6A6B7A6C0ACD1ACE2ACF3ACD2
:100B0000B301770C880B990B0E94A50E2B013C01B9
:100B1000A70196010E94900D20E030E040E85AE3E2
:100B20000E945A0FA70196010E94910D9B01AC01F2
:100B3000A9A1BAA1D8962D933D934D935C93DB97D1
:100B4000C301B2010E94900D6B017C01E9A1FAA1E1
:100B5000C0AAD1AAE2AAF3AAA5019401C501B401D1
:100B60000E945A0F9B01AC01A98DBA8D2D933D9324
:100B70004D935C931397EB85FC8560817181828135
:100B800093810E94910DAB85BC856D937D938D9370
:100B90009C931397A7019601C701B6010E945A0FB3
:100BA0009B01AC01EB8DFC8D208331834283538309
:100BB000AD85BE856D917D918D919C910E94910D29
:100BC000ED85FE856083718382839383A9A1BAA199
:100BD00098964D905D906D907C909B97A3019201AB
:100BE000C501B4010E94900DE9A1FAA120A131A193
:100BF00042A153A10E945A0FA30192010E94910D9C
:100C00009B01AC01A9A1BAA1DC962D933D934D9314
:100C10005C93DF97C701B6010E945A0F9B01AC019C
:100C2000ED8DFE8D2083318342835383AF85B88958
:100C30006D917D918D919C910E94910DEF85F88928
:100C40006083718382839383A981BA818C91EF81C0
:100C5000F8858083AF8DB8A18D919C918215930505
:100C600024F0A981BA811C9204C0E1E0A981BA8173
:100C7000EC93E981FA8180810130110519F4AF818B
:100C8000B8858C93EF81F8859081981731F02B818E
:100C90003C812F5F3F4F3C832B83EB81FC8174971A
:100CA00009F0C9CEED89FE89BF01FF0F880B990BB2
:100CB0000E94A50E20E030E04AE754E40E94020EB4
:100CC00020E030E040E85AE30E945A0F2B013C013B
:100CD000A9A1BAA158962D913D914D915C915B9738
:100CE0000E945A0F4B015C01B80190E080E00E9425
:100CF000A30E6B017C01E9A1FAA1EC5BFF4FFA8323
:100D0000E983AC019B0160817181828193810E94A2
:100D1000020E0E94CD0F9B01AC01C501B4010E94DF
:100D20005A0F6B837C838D839E83A9A1BAA11C96E5
:100D30006D937D938D939C931F975C962D913D9120
:100D40004D915C915F97C301B2010E945A0F2B0134
:100D50003C0109A11AA1045B1F4FA7019601F801EC
:100D600060817181828193810E94020E0E94CD0F69
:100D70009B01AC01C301B2010E945A0F6F837887B7
:100D800089879A87A9A1BAA150966D937D938D9377
:100D90009C9353971D01B4E52B0E311CA3019201C6
:100DA000C501B4010E945A0FF101208131814281B5
:100DB00053810E945A0FA70196010E94020E6B01F7
:100DC0007C01A9A1BAA1CD92DD92ED92FC9213977C
:100DD0002F81388549855A856B817C818D819E81E3
:100DE0000E945A0F9B01AC01E9A1FAA1248335832B
:100DF00046835783C701B6010E94020EA9A1BAA17A
:100E000018966D937D938D939C931B97E981FA813E
:100E10001082118212821382D8011D921D921D929E
:100E20001C921397F1011082118212821382A296F2
:100E30000FB6F894DEBF0FBECDBFDF91CF911F91EB
:100E40000F91FF90EF90DF90CF90BF90AF909F9069
:100E50008F907F906F905F904F903F902F9008956C
:100E6000FB0101900020E9F73197AF01461B570BBA
:100E7000DC01ED91FC910280F381E02D09948F92C9
:100E80009F92AF92BF920F931F93CF93DF93CDB7F3
:100E9000DEB7A1970FB6F894DEBF0FBECDBF19A283
:100EA000423008F44AE08E010F5D1F4F842E912CD2
:100EB000B12CA12CA50194010E942710E62FB901A5
:100EC000CA01EA3004F5E05DD801EE938D01232BD1
:100ED000242B252B79F790E080E0109729F0BD01B5
:100EE00089EC92E00E943007A1960FB6F894DEBF1D
:100EF0000FBECDBFDF91CF911F910F91BF90AF90EB
:100F00009F908F900895E95CDFCFCF93DF93BC0172
:100F100089EC92E00E943007EC016EE171E089EC0F
:100F200092E00E9430078C0F9D1FDF91CF910895B2
:100F30004F925F926F927F928F929F92AF92BF92E9
:100F4000CF92DF92EF92FF92CF93DF936B017C0100
:100F5000942EAC019B010E940D1061E271E08111A1
:100F600026C026013701E89477F82FEF3FEF4FE7CF
:100F70005FE7C301B2010E940D1081110CC02FEF79
:100F80003FEF4FE75FE7C301B2010E94FD0D65E24D
:100F900071E0181664F02FEF3FEF4FE75FE4C701F1
:100FA000B6010E94550F1816A4F469E271E089ECAD
:100FB00092E0DF91CF91FF90EF90DF90CF90BF90C4
:100FC000AF909F908F907F906F905F904F900C9418
:100FD00030072FEF3FEF4FE75FECC701B6010E94EC
:100FE000FD0D87FDE2CF20E030E0A901C701B60189
:100FF0000E94FD0DB12CA12C87FF0AC06DE289EC87
:1010000092E00E9411025C01F7FAF094F7F8F09474
:10101000C92D60E070E080E09FE3D0E020E030E0A8
:1010200040E251E40E94020E21E02D0FD1E029158B
:10103000A8F3A70196010E94910D2B013C010E948B
:10104000740E6B017C010E94A30E9B01AC01C301D5
:10105000B2010E94900D2B013C014AE0C701B6018C
:101060000E943F077C016EE289EC92E00E9411022F
:10107000E80EF91EEA0CFB1CC15018F120E030E02C
:1010800040E251E4C301B2010E945A0F2B013C011E
:101090000E94740E4B01B12CA12C4AE0C501B40191
:1010A0000E943F07E80EF91EC501B4010E94A30E7D
:1010B0009B01AC01C301B2010E94900D2B013C01C8
:1010C000DBCFC701DF91CF91FF90EF90DF90CF9002
:1010D000BF90AF909F908F907F906F905F904F9058
:1010E00008950C94300780E00E942F0461E371E0C2
:1010F00086E693E00E94710887E00E94D4006EE9C2
:1011000071E0892B11F06DE271E086E693E00E94B8
:10111000710881E00E942F046BE371E086E693E0A2
:101120000E94710885E00E94D4006EE971E0892B6D
:1011300011F06DE271E086E693E00E94710882E0B2
:101140000E942F0466E471E086E693E00E94710835
:1011500086E00E94D4006EE971E0892B11F06DE207
:1011600071E086E693E00E94710883E00E942F04FC
:1011700060E571E086E693E00E94710884E00E94D9
:10118000D4006EE971E0892B11F06DE271E086E622
:1011900093E00C9471081F920F920FB60F921124D6
:1011A0002F933F938F939F93AF93BF938091C102EF
:1011B0009091C202A091C302B091C4023091C002CA
:1011C00023E0230F2D3758F50196A11DB11D209363
:1011D000C0028093C1029093C202A093C302B09355
:1011E000C4028091C5029091C602A091C702B0913D
:1011F000C8020196A11DB11D8093C5029093C6023D
:10120000A093C702B093C802BF91AF919F918F91F5
:101210003F912F910F900FBE0F901F90189526E8C9
:10122000230F0296A11DB11DD2CF1F920F920FB6B0
:101230000F9211242F933F934F935F936F937F935C
:101240008F939F93AF93BF93EF93FF9389EC92E0BB
:101250000E94EF01FF91EF91BF91AF919F918F910C
:101260007F916F915F914F913F912F910F900FBEA2
:101270000F901F9018951F920F920FB60F92112486
:101280002F938F939F93EF93FF93E091D902F09167
:10129000DA028081E091DF02F091E00282FD1BC062
:1012A00090818091E2028F5F8F732091E302821719
:1012B00041F0E091E202F0E0E753FD4F958F80931B
:1012C000E202FF91EF919F918F912F910F900FBEAE
:1012D0000F901F9018958081F4CFE9ECF2E0138213
:1012E000128288EE93E0A0E0B0E084839583A68329
:1012F000B78384E091E09183808385EC90E09587CB
:10130000848784EC90E09787868780EC90E0918BCF
:10131000808B81EC90E0938B828B82EC90E0958BBC
:10132000848B86EC90E0978B868B118E128E138EB9
:10133000148EE6E6F3E01382128286E191E0918357
:1013400080838DE084838FEF85838CE086838BE0C0
:1013500087838AE0808789E0818788E08287138697
:10136000148615861686178661E080E10C948E033C
:10137000CF93DF93CDB7DEB7A4970FB6F894DEBF57
:101380000FBECDBF789484B5826084BD84B5816082
:1013900084BD85B5826085BD85B5816085BD809140
:1013A0006E00816080936E001092810080918100B8
:1013B00082608093810080918100816080938100B0
:1013C000809180008160809380008091B100846072
:1013D0008093B1008091B00081608093B0008091D3
:1013E0007A00846080937A0080917A008260809392
:1013F0007A0080917A00816080937A0080917A00EF
:10140000806880937A001092C100E091D902F09137
:10141000DA0282E08083E091D502F091D602108258
:10142000E091D702F091D8028FEC80831092E10214
:10143000E091DD02F091DE0286E08083E091DB0244
:10144000F091DC02808180618083E091DB02F09189
:10145000DC02808188608083E091DB02F091DC0215
:10146000808180688083E091DB02F091DC028081E2
:101470008F7D80838EE090E090937502809374025C
:10148000C12CD12C8BE3E82E83E4F82EC092780295
:10149000D0927902E0927A02F0927B024AE959E90D
:1014A00069ED7FE340938002509381026093820252
:1014B0007093830280E090E0A0E0B4E48093940213
:1014C00090939502A0939602B093970220E130E0AA
:1014D0003093150220931402C0921802D092190280
:1014E000E0921A02F0921B024093200250932102D4
:1014F000609322027093230280933402909335020A
:10150000A0933602B093370264E084E10E948E0318
:1015100087E00E948C0085E00E948C0086E00E949B
:101520008C0084E00E948C0060E087E00E94FD0057
:1015300060E085E00E94FD0060E086E00E94FD0022
:1015400060E084E00E94FD000E9473080E94650133
:101550002B013C018091BC029091BD02A091BE0282
:10156000B091BF02A3019201281B390B4A0B5B0B00
:10157000CA01B9010E94A30E20E030E04AE754E41A
:101580000E94020E4B015C014092BC025092BD02CF
:101590006092BE027092BF0289EC92E00E94CF017D
:1015A000181619060CF053C089EC92E00E94AD01A8
:1015B000EFEBE80FE830B8F40E2E000CFF0BED5106
:1015C000F54F0C946810EB0AF60AFD0A040B0B0B9E
:1015D000120B190B200B61E087E00E94FD008BE5E8
:1015E00091E00E9485070E947308D6CF60E087E0F3
:1015F0000E94FD0086E691E0F4CF61E085E00E9464
:10160000FD0082E791E0EDCF60E085E00E94FD0003
:101610008EE791E0E6CF61E086E00E94FD008BE876
:1016200091E0DFCF60E086E00E94FD0086E991E076
:10163000D8CF61E084E00E94FD0082EA91E0D1CF42
:1016400060E084E00E94FD008EEA91E0CACF80E66F
:1016500092E00E944304C0906C02D0906D02E09032
:101660006E02F0906F0249EB50E06EEE79E08FE091
:1016700090E00E94820269837A838B839C839B0122
:10168000AC01C701B6010E945A0F6D8B7E8B8F8B08
:10169000988F9B01AC01C501B4010E945A0F20E054
:1016A00030E041E655E40E94020E9B01AC016091DE
:1016B0005C0270915D0280915E0290915F020E94D7
:1016C000910D60935C0270935D0280935E02909333
:1016D0005F0280E092E00E94430480910C029091AE
:1016E0000D02A0910E02B0910F028D839E83AF83F5
:1016F000B88749EB50E06EEE79E081E190E00E941E
:10170000820269877A878B879C879B01AC016D81F8
:101710007E818F8198850E945A0F698F7A8F8B8F77
:101720009C8F9B01AC01C501B4010E945A0F20E0BF
:1017300030E041E655E40E94020E9B01AC0160914D
:10174000FC017091FD018091FE019091FF010E94CA
:10175000910D6093FC017093FD018093FE019093C5
:10176000FF0149EB50E06EEE79E082E190E00E94EB
:1017700082026D877E878F87988B9B01AC01C701A2
:10178000B6010E945A0F6D8F7E8F8F8F98A39B0199
:10179000AC01C501B4010E945A0F20E030E041E6DF
:1017A00055E40E94020E9B01AC016091F80170911A
:1017B000F9018091FA019091FB010E94910D6093D3
:1017C000F8017093F9018093FA019093FB0149EBC2
:1017D00050E06EEE79E083E190E00E948202698B36
:1017E0007A8B8B8B9C8B9B01AC01C701B6010E944D
:1017F0005A0F69A37AA38BA39CA39B01AC01C501DB
:10180000B4010E945A0F20E030E041E655E40E9406
:10181000020E9B01AC016091F4017091F501809181
:10182000F6019091F7010E94910D6093F40170937D
:10183000F5018093F6019093F7018091F00190916A
:10184000F101A091F201B091F301A3019201281BD3
:10185000390B4A0B5B0BDA01C901883E9340A105A5
:10186000B10508F450C14092F0015092F10160922C
:10187000F2017092F3016FEB71E089EC92E00E944B
:1018800071086BEB71E089EC92E00E94710861ECE9
:1018900071E089EC92E00E94710841E050E0C701DC
:1018A000B6010E94980766ED71E089EC92E00E9413
:1018B000710866EC71E089EC92E00E94710842E0E8
:1018C00050E069817A818B819C810E94980766ED46
:1018D00071E089EC92E00E9471086BEC71E089EC98
:1018E00092E00E94710841E050E06D897E898F8905
:1018F000988D0E94980766ED71E089EC92E00E9455
:10190000710860ED71E089EC92E00E9471086091CD
:101910005C0270915D0280915E0290915F0241E0F5
:1019200050E00E94980765ED71E089EC92E00E941A
:10193000710868ED71E089EC92E00E94710861EC39
:1019400071E089EC92E00E94710841E050E06D8105
:101950007E818F8198850E94980766ED71E089EC01
:1019600092E00E94710866EC71E089EC92E00E94BE
:10197000710842E050E069857A858B859C850E94DC
:10198000980766ED71E089EC92E00E9471086BECBB
:1019900071E089EC92E00E94710841E050E0698DAD
:1019A0007A8D8B8D9C8D0E94980766ED71E089EC95
:1019B00092E00E94710860ED71E089EC92E00E9473
:1019C00071086091FC017091FD018091FE01909180
:1019D000FF0141E050E00E94980765ED71E089EC5D
:1019E00092E00E9471086EED71E089EC92E00E9435
:1019F000710866EC71E089EC92E00E94710842E0A7
:101A000050E06D857E858F8598890E94980766EDE8
:101A100071E089EC92E00E9471086BEC71E089EC56
:101A200092E00E94710841E050E06D8D7E8D8F8DB7
:101A300098A10E94980766ED71E089EC92E00E94FF
:101A4000710860ED71E089EC92E00E94710860918C
:101A5000F8017091F9018091FA019091FB0141E048
:101A600050E00E94980765ED71E089EC92E00E94D9
:101A7000710866EE71E089EC92E00E94710866ECF4
:101A800071E089EC92E00E94710842E050E06989BF
:101A90007A898B899C890E94980766ED71E089ECB0
:101AA00092E00E9471086BEC71E089EC92E00E9478
:101AB000710841E050E069A17AA18BA19CA10E942C
:101AC000980766ED71E089EC92E00E94710860ED84
:101AD00071E089EC92E00E9471086091F4017091CC
:101AE000F5018091F6019091F70141E050E00E94EC
:101AF00098076EEE71E089EC92E00E9471088EEE1C
:101B000091E00E94850740E050E0452B09F41ECD8E
:101B10000E94DB01882309F419CD0E94000016CD34
:101B20005058BB27AA270E94A80D0C941B0F0E9497
:101B30000D0F38F00E94140F20F039F49F3F19F474
:101B400026F40C940A0F0EF4E095E7FB0C94040FB6
:101B5000E92F0E942C0F58F3BA1762077307840706
:101B6000950720F079F4A6F50C944E0F0EF4E0954D
:101B70000B2EBA2FA02D0B01B90190010C01CA0147
:101B8000A0011124FF27591B99F0593F50F4503EF2
:101B900068F11A16F040A22F232F342F4427585FE4
:101BA000F3CF469537952795A795F0405395C9F7FC
:101BB0007EF41F16BA0B620B730B840BBAF09150B4
:101BC000A1F0FF0FBB1F661F771F881FC2F70EC053
:101BD000BA0F621F731F841F48F487957795679526
:101BE000B795F7959E3F08F0B0CF9395880F08F012
:101BF0009927EE0F9795879508950E94E00E08F4B7
:101C000081E008950E94160E0C941B0F0E94140F81
:101C100058F00E940D0F40F029F45F3F29F00C941A
:101C2000040F51110C944F0F0C940A0F0E942C0FAB
:101C300068F39923B1F3552391F3951B550BBB27FB
:101C4000AA2762177307840738F09F5F5F4F220F40
:101C5000331F441FAA1FA9F335D00E2E3AF0E0E837
:101C600032D091505040E695001CCAF72BD0FE2F81
:101C700029D0660F771F881FBB1F26173707480715
:101C8000AB07B0E809F0BB0B802DBF01FF279358CD
:101C90005F4F3AF09E3F510578F00C94040F0C947E
:101CA0004F0F5F3FE4F3983ED4F3869577956795A1
:101CB000B795F7959F5FC9F7880F911D9695879502
:101CC00097F90895E1E0660F771F881FBB1F621721
:101CD00073078407BA0720F0621B730B840BBA0BDF
:101CE000EE1F88F7E09508950E94340F88F09F5703
:101CF00098F0B92F9927B751B0F0E1F0660F771F30
:101D0000881F991F1AF0BA95C9F714C0B13091F025
:101D10000E944E0FB1E008950C944E0F672F782F5C
:101D20008827B85F39F0B93FCCF3869577956795EA
:101D3000B395D9F73EF490958095709561957F4F56
:101D40008F4F9F4F0895E89409C097FB3EF49095FC
:101D50008095709561957F4F8F4F9F4F9923A9F084
:101D6000F92F96E9BB279395F69587957795679513
:101D7000B795F111F8CFFAF4BB0F11F460FF1BC057
:101D80006F5F7F4F8F4F9F4F16C0882311F096E9EA
:101D900011C0772321F09EE8872F762F05C0662398
:101DA00071F096E8862F70E060E02AF09A95660F51
:101DB000771F881FDAF7880F9695879597F908950A
:101DC000990F0008550FAA0BE0E8FEEF161617064C
:101DD000E807F907C0F012161306E407F50798F0B4
:101DE000621B730B840B950B39F40A2661F0232BCD
:101DF000242B252B21F408950A2609F4A140A69549
:101E00008FEF811D811D089597F99F6780E870E02D
:101E100060E008959FEF80EC089500240A94161660
:101E2000170618060906089500240A9412161306C8
:101E3000140605060895092E0394000C11F4882356
:101E400052F0BB0F40F4BF2B11F460FF04C06F5F72
:101E50007F4F8F4F9F4F089557FD9058440F551F48
:101E600059F05F3F71F04795880F97FB991F61F01C
:101E70009F3F79F087950895121613061406551F93
:101E8000F2CF4695F1DF08C0161617061806991FFF
:101E9000F1CF86957105610508940895E894BB27F4
:101EA00066277727CB0197F908950E94E00E08F482
:101EB0008FEF08950E946D0F0C941B0F0E940D0F61
:101EC00038F00E94140F20F0952311F00C94040FA9
:101ED0000C940A0F11240C944F0F0E942C0F70F3D6
:101EE000959FC1F3950F50E0551F629FF001729FBF
:101EF000BB27F00DB11D639FAA27F00DB11DAA1FCE
:101F0000649F6627B00DA11D661F829F2227B00D1A
:101F1000A11D621F739FB00DA11D621F839FA00DA5
:101F2000611D221F749F3327A00D611D231F849FF5
:101F3000600D211D822F762F6A2F11249F5750404C
:101F40009AF0F1F088234AF0EE0FFF1FBB1F661FC7
:101F5000771F881F91505040A9F79E3F510580F090
:101F60000C94040F0C944F0F5F3FE4F3983ED4F3AE
:101F7000869577956795B795F795E7959F5FC1F734
:101F8000FE2B880F911D9695879597F9089519F462
:101F900016F40C940A0F0C9412100E94340FB8F32C
:101FA0009923C9F3B6F39F57550B87FF0E94201062
:101FB0000024A0E640EA900180585695979528F4B1
:101FC000805C660F771F881F20F0261737074807A9
:101FD00030F4621B730B840B202931294A2BA69500
:101FE00017940794202531254A2758F7660F771F45
:101FF000881F20F026173707480730F4620B730B51
:10200000840B200D311D411DA09581F7B901842F4E
:102010009158880F9695879508950E94E00E880B39
:10202000990B08959F3F31F0915020F48795779553
:102030006795B795880F911D9695879597F908959F
:1020400091505040660F771F881FD2F70895A1E284
:102050001A2EAA1BBB1BFD010DC0AA1FBB1FEE1F22
:10206000FF1FA217B307E407F50720F0A21BB30B6D
:10207000E40BF50B661F771F881F991F1A9469F7E9
:1020800060957095809590959B01AC01BD01CF0145
:102090000895052E97FB1EF400940E94601057FDD2
:1020A00007D00E94271007FC03D04EF40C94601058
:1020B00050954095309521953F4F4F4F5F4F089574
:1020C00090958095709561957F4F8F4F9F4F0895A4
:1020D000EE0FFF1F0590F491E02D0994F894FFCFC7
:1020E00000000000110271019E015E02CF01AD01EE
:1020F000C101000000003D0471017F027E020D0A53
:10210000006E616E00696E66006F7666004F4E204D
:1021100000526573477269643A2000526573536FC9
:102120006C61723A2000496E64477269643A20001B
:10213000496E64536F6C61723A2000526573477246
:102140006964204F4E0052657347726964204F46A0
:102150004600526573536F6C6172204F4E0052659A
:1021600073536F6C6172204F464600496E6447722C
:102170006964204F4E00496E6447726964204F467F
:102180004600496E64536F6C6172204F4E00496E79
:1021900064536F6C6172204F4646002247223A7B9F
:1021A000002256223A002249223A002250223A00C6
:1021B0002245223A007D2C002253223A7B002249FC
:1021C0006E64223A7B0022526573223A7B007D00C6
:00000001FF
